:05000300120E4E80FE0C
:100D540020510E0000000000000000000000000010
:100D6400000000000000000000000000000000007F
:100D7400000000000000000000000000000000006F
:100D8400000000000000000000000000000000005F
:100D9400000000000000000000000000000000004F
:0C0DA4000000000002080000020A00002D
:100E4E00120F51120F81120F77120F67E4FFEF7519
:100E5E00F003A42410F8E64420F60FBF0CF07F0C2C
:100E6E00EF75F003A42410F8E654DFF60FBF1AF066
:100E7E00435E20E4FF746D2FF8A6070FBF1AF6909D
:0B0E8E00FEA8743FF075DE0F75BC80FD
:010E99002236
:100DB100E4F56C43BC40E5BC70047F0180027F0018
:100DC100EF20E5F253BCDFAF0DAE0C120E43120E55
:100DD100017C007D1A120CC9AF05746D2FF8E6FE77
:100DE100746D256CF8E6FD746D2FF8A605746D25FC
:0F0DF1006CF8A606056CC3E56C6480949A40B458
:010E000022CF
:100F510043BA80E4F594F593F592759101F596F510
:060F610095F5B2F5B12286
:10000E00E55F1470030202921470030204F414707C
:10001E000302075B240360030209C6E50E54E044A5
:10002E0003F50EE50F54E04407F50FE51054E044D8
:10003E0004F510E51154E04404F511E51254E044C2
:10004E0008F512E51354E04405F513E51454E044A5
:10005E0005F514E51554E04409F515E51654E0448C
:10006E0006F516E51754E0441AF517E51854E04462
:10007E001AF518E51954E04407F519E51A54E04449
:10008E0007F51AE51B54E0440AF51BE51C54E04441
:10009E0008F51CE51D54E04408F51DE51E54E0442A
:1000AE000BF51EE51F54E04409F51FE52054E0440E
:1000BE0009F520E52154E0441AF521E52254E044E7
:1000CE001AF522E52354E0441AF523E52454E044BE
:1000DE001AF524E52554E0440AF525E52654E044B6
:1000EE000AF526E52754E0440CF527E52854E044AC
:1000FE000BF528E52954E0440BF529E52A54E04494
:10010E001AF52AE52B54E0441AF52BE52C54E0445D
:10011E001AF52CE52D54E0441AF52DE52E54E04445
:10012E000CF52EE52F54E0440CF52FE53054E04449
:10013E001AF530E53154E0441AF531E53254E04415
:10014E001AF532E53354E0440DF533E53454E0440A
:10015E001AF534E53554E0440EF535E53654E044F1
:10016E0011F536E53754E0440FF537E53854E044E1
:10017E0010F538E53954E04414F539E53A54E044C5
:10018E0011F53AE53B54E04411F53BE53C54E044AF
:10019E0015F53CE53D54E04412F53DE53E54E04492
:1001AE0013F53EE53F54E04417F53FE54054E04477
:1001BE0014F540E54154E04414F541E54254E04461
:1001CE0018F542E54354E04415F543E54454E04444
:1001DE0015F544E54554E04419F545E54654E0442B
:1001EE0016F546E54754E0441AF547E54854E04411
:1001FE001AF548E54954E04417F549E54A54E044F8
:10020E0017F54AE54B54E0441AF54BE54C54E044DF
:10021E0018F54CE54D54E04418F54DE54E54E044C8
:10022E001AF54EE54F54E04419F54FE55054E044AD
:10023E0019F550E55154E0441AF551E55254E04495
:10024E001AF552E55354E0441AF553E55454E0447C
:10025E001AF554E55554E0441AF555E55654E04464
:10026E001AF556E55754E0441AF557E55854E0444C
:10027E001AF558E55954E0441AF559E55A54E04434
:10028E001A020750E50E54E0441AF50EE50F54E03D
:10029E00441AF50FE51054E0441AF510E51154E038
:1002AE00441AF511E51254E0441AF512E51354E020
:1002BE00441AF513E51454E0441AF514E51554E008
:1002CE00441AF515E51654E0441AF5165317E0E5F1
:1002DE001854E0441AF518E51954E0441AF519E5D6
:1002EE001A54E04401F51AE51B54E0441AF51B5369
:1002FE001CE0E51D54E04402F51DE51E54E0441AD1
:10030E00F51EE51F54E04401F51FE52054E0441AA4
:10031E00F520E52154E0441AF521E52254E044028B
:10032E00F522E52354E04404F5235324E0E5255457
:10033E00E04403F525E52654E04405F526E527546B
:10034E00E04401F527E52854E04404F528E5295456
:10035E00E04406F529E52A54E04402F52AE52B543B
:10036E00E04405F52BE52C54E04408F52CE52D541E
:10037E00E04404F52DE52E54E04407F52EE52F5408
:10038E00E04409F52FE53054E04405F530E53154ED
:10039E00E04408F531E53254E0440BF532E53354D0
:1003AE00E04408F533E53454E0440AF534E53554B9
:1003BE00E0441AF535E53654E0440CF536E537548D
:1003CE00E0441AF537E53854E0440DF538E5395474
:1003DE00E0441AF539E53A54E0441AF53AE53B544F
:1003EE00E0441AF53BE53C54E0441AF53CE53D5437
:1003FE00E0440DF53DE53E54E0440EF53EE53F5438
:10040E00E0441AF53FE54054E0441AF540E5415406
:10041E00E0440FF541E54254E0440DF542E5435406
:10042E00E0440EF543E54454E0441AF544E54554E2
:10043E00E0441AF545E54654E0440FF546E54754C9
:10044E00E04410F547E54854E0441AF548E54954B0
:10045E00E0441AF549E54A54E04411F54AE54B5497
:10046E00E0440EF54BE54C54E04410F54CE54D548C
:10047E00E04412F54DE54E54E0440FF54EE54F5471
:10048E00E04411F54FE55054E0441AF550E551544F
:10049E00E0441AF551E55254E04412F552E5535436
:1004AE00E04414F553E55454E04410F554E5555426
:1004BE00E04413F555E55654E04415F556E557540A
:1004CE00E04411F557E55854E04414F558E55954F5
:1004DE00E04416F559E55A54E04412F55AE55B54DA
:1004EE00E04415F55B22E50E54E0441AF50EE50FD7
:1004FE0054E0441AF50FE51054E04403F510E511ED
:10050E0054E0441AF5115312E0E51354E04404F597
:10051E0013E51454E0441AF514E51554E04401F5BE
:10052E0015E51654E04405F516E51754E0441AF5A2
:10053E0017E51854E0441AF518E51954E0441AF575
:10054E0019531AE0E51B54E04403F51BE51C54E077
:10055E004407F51CE51D54E04401F51DE51E54E06D
:10056E004404F51EE51F54E04408F51FE52054E051
:10057E004402F520E52154E04405F521E52254E03E
:10058E004409F522E52354E04403F523E52454E021
:10059E00441AF524E52554E0441AF525E52654E0E1
:1005AE004404F526E52754E04407F527E52854E0F2
:1005BE00440AF528E52954E04405F529E52A54E0D6
:1005CE004408F52AE52B54E0440BF52BE52C54E0BA
:1005DE004407F52CE52D54E0441AF52DE52E54E094
:1005EE00441AF52EE52F54E04408F52FE53054E07B
:1005FE00440AF530E53154E0440CF531E53254E06F
:10060E00440AF532E53354E0441AF533E53454E048
:10061E00441AF534E53554E0441AF535E53654E020
:10062E00441AF536E53754E0440EF537E53854E014
:10063E00441AF538E53954E0441AF539E53A54E0F0
:10064E004410F53AE53B54E0440DF53BE53C54E0EF
:10065E00440EF53CE53D54E04411F53DE53E54E0D5
:10066E00441AF53EE53F54E0441AF53FE54054E0A8
:10067E004413F540E54154E0440EF541E54254E0A3
:10068E004410F542E54354E04414F543E54454E088
:10069E00440FF544E54554E04411F545E54654E074
:1006AE004415F546E54754E0441AF547E54854E04D
:1006BE00441AF548E54954E0441AF549E54A54E030
:1006CE004410F54AE54B54E04413F54BE54C54E029
:1006DE004417F54CE54D54E04411F54DE54E54E00C
:1006EE004414F54EE54F54E04418F54FE55054E0F0
:1006FE004412F550E55154E04415F551E55254E0DD
:10070E004419F552E55354E04413F553E55454E0BF
:10071E00441AF554E55554E0441AF555E55654E09F
:10072E004414F556E55754E04417F557E55854E090
:10073E00441AF558E55954E04415F559E55A54E074
:10074E004418F55AE55B54E0441AF55B22E50E5465
:10075E00E04404F50EE50F54E04401F50FE51054A6
:10076E00E0441AF510E51154E04405F511E5125474
:10077E00E04402F512E51354E0441AF513E514545F
:10078E00E04406F514E51554E0441AF515E5165443
:10079E00E0441AF516E51754E04407F517E518542A
:1007AE00E04404F5185319E0E51A54E04408F51A2C
:1007BE00E51B54E04405F51BE51C54E04401F51C13
:1007CE00E51D54E04409F51DE51E54E04406F51EF2
:1007DE00E51F54E04402F51FE52054E0441AF520CD
:1007EE00E52154E0441AF521E52254E0441AF5229D
:1007FE00E52354E0440AF523E52454E04408F524A7
:10080E00E52554E04404F525E52654E0440BF52691
:10081E00E52754E04409F527E52854E04405F5287A
:10082E00E52954E0441AF529E52A54E0441AF52A3C
:10083E00E52B54E04406F52BE52C54E0440CF52C46
:10084E00E52D54E0440BF52DE52E54E04408F52E2D
:10085E00E52F54E0441AF52FE53054E0441AF530F4
:10086E00E53154E04409F531E53254E0441AF532ED
:10087E00E53354E0441AF533E53454E0440BF534D3
:10088E00E53554E0440FF535E53654E0441AF536B7
:10089E00E53754E0441AF537E53854E04411F5389D
:1008AE00E53954E0440FF539E53A54E0440DF53A94
:1008BE00E53B54E04412F53BE53C54E0441AF53C6C
:1008CE00E53D54E0441AF53DE53E54E04414F53E52
:1008DE00E53F54E04411F53FE54054E0440EF54049
:1008EE00E54154E04415F541E54254E04412F54229
:1008FE00E54354E0440FF543E54454E04416F54413
:10090E00E54554E0441AF545E54654E0441AF546EB
:10091E00E54754E04417F547E54854E04414F548DC
:10092E00E54954E04410F549E54A54E04418F54AC7
:10093E00E54B54E04415F54BE54C54E04411F54CB1
:10094E00E54D54E04419F54DE54E54E04416F54E90
:10095E00E54F54E04412F54FE55054E0441AF5507B
:10096E00E55154E0441AF551E55254E0441AF5525B
:10097E00E55354E0441AF553E55454E04418F55445
:10098E00E55554E04414F555E55654E0441AF55631
:10099E00E55754E04419F557E55854E04415F55819
:1009AE00E55954E0441AF559E55A54E0441AF55AFB
:0909BE00E55B54E04416F55B22F0
:1009C700120DB1E4F56A746D256AF8E6F56B75F0FA
:1009D70003A42410F8E6FFC413540720E003020A17
:1009E700ECE56B75F003A4240FF8E6541F75F003CC
:1009F700A42410F8E6C413540125E0FEE56B75F056
:100A070003A4240EF8E6541F75F003A42410F8E697
:100A1700C413540125E025E02EFEEF541F75F003A3
:100A2700A42410F8E6FDC41354012EFEE56B75F0FF
:100A370003A42410F8EF54DFF6AF06EFB408004024
:100A470003020AEC900A52F8282873020A6A020A7B
:100A570074020A7E020ABB020AC5020ACF020AD141
:100A6700020ACFE56B75F003A4240F8065E56B756B
:100A7700F003A4240E805B43BC40E5BC70047F01F7
:100A870080027F00EF20E5F253BCDFAF0DAE0C1202
:100A97000E43120E017C007D02120CC9ED4C600A58
:100AA700E56B75F003A4240E8008E56B75F003A4CD
:100AB7002410801EE56B75F003A4240E8014E56BEB
:100AC70075F003A42410800A800EE56B75F003A46B
:100AD7002410F8E6541F8002E56B75F003A4241078
:100AE700F8E64420F6056AC3E56A6480949A5003E1
:030AF7000209CD24
:010AFA0022D9
:100F2100D2A7C2A67F19D3EF6480947F401DC2A1CE
:100F3100EF75F003A42410F8E6C413540730E0045D
:0F0F4100D2A08002C2A0D2A11F80DBD2A6C2A77D
:010F5000227E
:100F6700E4F589758CFC758A66D28CD2A9D2AF223A
:03000B00020BA045
:100BA000C0E0C0F0C083C082C0D075D000C000C01B
:0D0BB00001C002C003C004C005C006C0079C
:100BBD000509E50970020508050BE50B7002050A2C
:100BCD00050DE50D7002050CE50964144508700C62
:100BDD0012000E1209C7750800750900E50B64F4C3
:100BED007004E50A6401702AF50AF50BE53430E569
:100BFD000EE533541FFFBF0D065334DF433720E599
:100C0D003730E50EE536541FFFBF0C064334205335
:050C1D0037DF120F217A
:100C2200D007D006D005D004D003D002D001D00026
:0B0C3200D0D0D082D083D0F0D0E032D0
:090F8100D2A2D2A5C2A3C2A4228F
:03000800C2A2226F
:030F8A00D2A222CE
:020EDE00A90762
:100EE000E4FD120008FBC2A574807E00A803088000
:100EF00006CEA2E713CE13D8F8FFE9F582EF5582AC
:100F000024FF92A330A40E7480A803088003A2E7F4
:100F100013D8FB4205D2A50BBB08CB120F8AAF0535
:010F200022AE
:0A0F77007F20120EDE7F47020EDE1F
:100AFB007FA9120EDEE4FF120EDEEF756100F560CA
:100B0B007FA8120EDEE4FF120EDEEF4261E47FAB34
:100B1B00120EDEE4FF120EDEEF756300F5627FAAA4
:100B2B00120EDEE4FF120EDEEF4263E47FAD120E17
:100B3B00DEE4FF120EDEEF756500F5647FAC120E7E
:100B4B00DEE4FF120EDEEF4265E56030E714E5618F
:100B5B00F4FFE560F4FEEF2401FFE43E4480F56012
:100B6B008F61E56230E714E563F4FFE562F4FEEFB5
:100B7B002401FFE43E4480F5628F63E56430E714A3
:100B8B00E565F4FFE564F4FEEF2401FFE43E4480E9
:050B9B00F5648F6522E6
:100E9A00120AFBC3E5619480E5606480947F500385
:100EAA00E4F55FD3E5619480E56064809480400353
:100EBA00755F01C3E5639480E5626480947F5003A3
:100ECA00755F02D3E5639480E56264809480400391
:040EDA00755F03221B
:03000000020C3DB2
:0C0C3D00787FE4F6D8FD758186020C84F7
:100CC900C2D5EC30E709B2D5E4C39DFDE49CFCEE46
:100CD90030E715B2D5E4C39FFFE49EFE120CFFC3B3
:100CE900E49DFDE49CFC8003120CFF30D507C3E4AE
:060CF9009FFFE49EFE22B5
:100E0100AC66AD67AE68AF697810EC4D4E4F7004BB
:100E11007CA57DA5C3EC13FCED13FDEE13FEEF13D2
:100E2100FF5010EC64CCFCED644CFDEE644EFEEF23
:100E310064CEFFD8DF8C668D678E688F69EE547F34
:0D0E4100FE228E668F6774A5F568F56922A4
:100C4900020003E493A3F8E493A34003F68001F2BE
:100C590008DFF48029E493A3F85407240CC8C333AC
:100C6900C4540F4420C8834004F456800146F6DF7B
:100C7900E4800B0102040810204080900D54E47EAA
:100C8900019360BCA3FF543F30E509541FFEE49370
:100C9900A360010ECF54C025E060A840B8E493A337
:100CA900FAE493A3F8E493A3C8C582C8CAC583CA62
:100CB900F0A3C8C582C8CAC583CADFE9DEE780BE1A
:010DB0000042
:100CFF00BC000BBE0029EF8DF084FFADF022E4CCD9
:100D0F00F875F008EF2FFFEE33FEEC33FCEE9DECA1
:100D1F00984005FCEE9DFE0FD5F0E9E4CEFD22EDE7
:100D2F00F8F5F0EE8420D21CFEADF075F008EF2F31
:100D3F00FFED33FD4007985006D5F0F222C398FD22
:050D4F000FD5F0EA22BF
:00000001FF
